05004234210032521655000Z  74720405366000868293435000000001231000000057589214000005805000600PARANA FUNCIONAL         ASUNCION     PY 541100000     1000N3131375 1 076001B
0501   A1217    000000                                                        SY000001283      92204259000000000000  5365 0    5 0                           000000000  
050546536575096781900000005805060000        0000 000000000000                              000000000097130C0915215007157969000000000000F             0000000000000000 D 
050700000251231000040600        49A1D293002E2000BA8903F975B0D88A0112000000000003A02000000000058050000000000000000000060000000000000000000000000000000020700000          
06204594130040900564000   74090946001000007795247000000000101000007114343214000000096329978REMI*REMITI              Cheltenham   GB 482900000     1000N3484211 4 0160010
0621   A1217    000000                                                     951 Y431832260304059432435010000000000007 5365 03   5 0                           000000000  
0623           YCRPP   4531468302884990                                  REMITI                        Suites 15 16 Pure Offices          Cheltenham                 826
062530536579248698500000009632997800        0000 000000000000                              000000000600000C0511742007158988000000000000F             0000000000000000 D 
05004234210018596499000Z  74720405366000868336895000000001231000000421625214000042500000600BLUR BEAUTY CLUB         ASUNCION     PY 723000000     1000N3374945 1 076001B
0501   A1217    000000                                                        SY000113012      01397017000000000000  5365 0    5 0                           000000000  
050530536579868531500000042500060000        0000 000000000000                              000000000711260C0915215007157969000000000000F             0000000000000000 D 
050700000251231606848600        BB467F54076F2000D43D6A4C6533F5080112000000000003A020000000004250000000000000000000000600000000000000000000000000000000                  
05004234210021220160000Z  74109235365000144276439000000001231000000211119214000000211119214Lateral Fleming          Madrid       ES 581200000     1000N1616568 1 076001B
0501            000000                                                     966S 11751931958653268532911000000000000  6001 09   5 0                           000000000  
050530536550510015000000000265597800        0000 000000000000                              000000000067140C0000000000000000000000000000F       1     0000000000000000 D 
050700000251231006808724        961FBBC200512000703346C83B083C240112000000000003A02000000000002655000000000000000000060000000000000000000000000000000020700080          
